{
  "_format": "hh-sol-artifact-1",
  "contractName": "SoulboundNFT",
  "sourceName": "contracts/SoulboundNFT.sol",
  "abi": [
    {
      "inputs": [],
      "stateMutability": "nonpayable",
      "type": "constructor"
    },
    {
      "inputs": [
        {
          "internalType": "address",
          "name": "sender",
          "type": "address"
        },
        {
          "internalType": "uint256",
          "name": "tokenId",
          "type": "uint256"
        },
        {
          "internalType": "address",
          "name": "owner",
          "type": "address"
        }
      ],
      "name": "ERC721IncorrectOwner",
      "type": "error"
    },
    {
      "inputs": [
        {
          "internalType": "address",
          "name": "operator",
          "type": "address"
        },
        {
          "internalType": "uint256",
          "name": "tokenId",
          "type": "uint256"
        }
      ],
      "name": "ERC721InsufficientApproval",
      "type": "error"
    },
    {
      "inputs": [
        {
          "internalType": "address",
          "name": "approver",
          "type": "address"
        }
      ],
      "name": "ERC721InvalidApprover",
      "type": "error"
    },
    {
      "inputs": [
        {
          "internalType": "address",
          "name": "operator",
          "type": "address"
        }
      ],
      "name": "ERC721InvalidOperator",
      "type": "error"
    },
    {
      "inputs": [
        {
          "internalType": "address",
          "name": "owner",
          "type": "address"
        }
      ],
      "name": "ERC721InvalidOwner",
      "type": "error"
    },
    {
      "inputs": [
        {
          "internalType": "address",
          "name": "receiver",
          "type": "address"
        }
      ],
      "name": "ERC721InvalidReceiver",
      "type": "error"
    },
    {
      "inputs": [
        {
          "internalType": "address",
          "name": "sender",
          "type": "address"
        }
      ],
      "name": "ERC721InvalidSender",
      "type": "error"
    },
    {
      "inputs": [
        {
          "internalType": "uint256",
          "name": "tokenId",
          "type": "uint256"
        }
      ],
      "name": "ERC721NonexistentToken",
      "type": "error"
    },
    {
      "inputs": [
        {
          "internalType": "address",
          "name": "owner",
          "type": "address"
        }
      ],
      "name": "OwnableInvalidOwner",
      "type": "error"
    },
    {
      "inputs": [
        {
          "internalType": "address",
          "name": "account",
          "type": "address"
        }
      ],
      "name": "OwnableUnauthorizedAccount",
      "type": "error"
    },
    {
      "anonymous": false,
      "inputs": [
        {
          "indexed": true,
          "internalType": "address",
          "name": "owner",
          "type": "address"
        },
        {
          "indexed": true,
          "internalType": "address",
          "name": "approved",
          "type": "address"
        },
        {
          "indexed": true,
          "internalType": "uint256",
          "name": "tokenId",
          "type": "uint256"
        }
      ],
      "name": "Approval",
      "type": "event"
    },
    {
      "anonymous": false,
      "inputs": [
        {
          "indexed": true,
          "internalType": "address",
          "name": "owner",
          "type": "address"
        },
        {
          "indexed": true,
          "internalType": "address",
          "name": "operator",
          "type": "address"
        },
        {
          "indexed": false,
          "internalType": "bool",
          "name": "approved",
          "type": "bool"
        }
      ],
      "name": "ApprovalForAll",
      "type": "event"
    },
    {
      "anonymous": false,
      "inputs": [
        {
          "indexed": true,
          "internalType": "address",
          "name": "previousOwner",
          "type": "address"
        },
        {
          "indexed": true,
          "internalType": "address",
          "name": "newOwner",
          "type": "address"
        }
      ],
      "name": "OwnershipTransferred",
      "type": "event"
    },
    {
      "anonymous": false,
      "inputs": [
        {
          "indexed": true,
          "internalType": "address",
          "name": "user",
          "type": "address"
        },
        {
          "indexed": false,
          "internalType": "uint256",
          "name": "tokenId",
          "type": "uint256"
        }
      ],
      "name": "ProfileBurned",
      "type": "event"
    },
    {
      "anonymous": false,
      "inputs": [
        {
          "indexed": true,
          "internalType": "address",
          "name": "user",
          "type": "address"
        },
        {
          "indexed": false,
          "internalType": "uint256",
          "name": "tokenId",
          "type": "uint256"
        },
        {
          "indexed": false,
          "internalType": "string",
          "name": "metadataURI",
          "type": "string"
        }
      ],
      "name": "ProfileCreated",
      "type": "event"
    },
    {
      "anonymous": false,
      "inputs": [
        {
          "indexed": false,
          "internalType": "uint256",
          "name": "tokenId",
          "type": "uint256"
        },
        {
          "indexed": false,
          "internalType": "bool",
          "name": "verified",
          "type": "bool"
        }
      ],
      "name": "ProfileVerified",
      "type": "event"
    },
    {
      "anonymous": false,
      "inputs": [
        {
          "indexed": false,
          "internalType": "uint256",
          "name": "tokenId",
          "type": "uint256"
        },
        {
          "indexed": false,
          "internalType": "uint256",
          "name": "newReputation",
          "type": "uint256"
        }
      ],
      "name": "ReputationUpdated",
      "type": "event"
    },
    {
      "anonymous": false,
      "inputs": [
        {
          "indexed": true,
          "internalType": "address",
          "name": "from",
          "type": "address"
        },
        {
          "indexed": true,
          "internalType": "address",
          "name": "to",
          "type": "address"
        },
        {
          "indexed": true,
          "internalType": "uint256",
          "name": "tokenId",
          "type": "uint256"
        }
      ],
      "name": "Transfer",
      "type": "event"
    },
    {
      "inputs": [
        {
          "internalType": "address",
          "name": "",
          "type": "address"
        },
        {
          "internalType": "uint256",
          "name": "",
          "type": "uint256"
        }
      ],
      "name": "approve",
      "outputs": [],
      "stateMutability": "nonpayable",
      "type": "function"
    },
    {
      "inputs": [
        {
          "internalType": "address",
          "name": "owner",
          "type": "address"
        }
      ],
      "name": "balanceOf",
      "outputs": [
        {
          "internalType": "uint256",
          "name": "",
          "type": "uint256"
        }
      ],
      "stateMutability": "view",
      "type": "function"
    },
    {
      "inputs": [],
      "name": "burnProfile",
      "outputs": [],
      "stateMutability": "nonpayable",
      "type": "function"
    },
    {
      "inputs": [
        {
          "internalType": "string",
          "name": "metadataURI",
          "type": "string"
        }
      ],
      "name": "createProfile",
      "outputs": [
        {
          "internalType": "uint256",
          "name": "",
          "type": "uint256"
        }
      ],
      "stateMutability": "nonpayable",
      "type": "function"
    },
    {
      "inputs": [
        {
          "internalType": "uint256",
          "name": "tokenId",
          "type": "uint256"
        }
      ],
      "name": "getApproved",
      "outputs": [
        {
          "internalType": "address",
          "name": "",
          "type": "address"
        }
      ],
      "stateMutability": "view",
      "type": "function"
    },
    {
      "inputs": [
        {
          "internalType": "address",
          "name": "user",
          "type": "address"
        }
      ],
      "name": "getProfileByAddress",
      "outputs": [
        {
          "components": [
            {
              "internalType": "uint256",
              "name": "tokenId",
              "type": "uint256"
            },
            {
              "internalType": "address",
              "name": "userAddress",
              "type": "address"
            },
            {
              "internalType": "uint256",
              "name": "timestamp",
              "type": "uint256"
            },
            {
              "internalType": "string",
              "name": "metadataURI",
              "type": "string"
            },
            {
              "internalType": "bool",
              "name": "isVerified",
              "type": "bool"
            },
            {
              "internalType": "uint256",
              "name": "reputation",
              "type": "uint256"
            }
          ],
          "internalType": "struct SoulboundNFT.Profile",
          "name": "",
          "type": "tuple"
        }
      ],
      "stateMutability": "view",
      "type": "function"
    },
    {
      "inputs": [
        {
          "internalType": "address",
          "name": "user",
          "type": "address"
        }
      ],
      "name": "getReputation",
      "outputs": [
        {
          "internalType": "uint256",
          "name": "",
          "type": "uint256"
        }
      ],
      "stateMutability": "view",
      "type": "function"
    },
    {
      "inputs": [
        {
          "internalType": "address",
          "name": "",
          "type": "address"
        }
      ],
      "name": "hasProfile",
      "outputs": [
        {
          "internalType": "bool",
          "name": "",
          "type": "bool"
        }
      ],
      "stateMutability": "view",
      "type": "function"
    },
    {
      "inputs": [
        {
          "internalType": "address",
          "name": "owner",
          "type": "address"
        },
        {
          "internalType": "address",
          "name": "operator",
          "type": "address"
        }
      ],
      "name": "isApprovedForAll",
      "outputs": [
        {
          "internalType": "bool",
          "name": "",
          "type": "bool"
        }
      ],
      "stateMutability": "view",
      "type": "function"
    },
    {
      "inputs": [
        {
          "internalType": "address",
          "name": "user",
          "type": "address"
        }
      ],
      "name": "isVerified",
      "outputs": [
        {
          "internalType": "bool",
          "name": "",
          "type": "bool"
        }
      ],
      "stateMutability": "view",
      "type": "function"
    },
    {
      "inputs": [],
      "name": "name",
      "outputs": [
        {
          "internalType": "string",
          "name": "",
          "type": "string"
        }
      ],
      "stateMutability": "view",
      "type": "function"
    },
    {
      "inputs": [],
      "name": "owner",
      "outputs": [
        {
          "internalType": "address",
          "name": "",
          "type": "address"
        }
      ],
      "stateMutability": "view",
      "type": "function"
    },
    {
      "inputs": [
        {
          "internalType": "uint256",
          "name": "tokenId",
          "type": "uint256"
        }
      ],
      "name": "ownerOf",
      "outputs": [
        {
          "internalType": "address",
          "name": "",
          "type": "address"
        }
      ],
      "stateMutability": "view",
      "type": "function"
    },
    {
      "inputs": [
        {
          "internalType": "uint256",
          "name": "",
          "type": "uint256"
        }
      ],
      "name": "profiles",
      "outputs": [
        {
          "internalType": "uint256",
          "name": "tokenId",
          "type": "uint256"
        },
        {
          "internalType": "address",
          "name": "userAddress",
          "type": "address"
        },
        {
          "internalType": "uint256",
          "name": "timestamp",
          "type": "uint256"
        },
        {
          "internalType": "string",
          "name": "metadataURI",
          "type": "string"
        },
        {
          "internalType": "bool",
          "name": "isVerified",
          "type": "bool"
        },
        {
          "internalType": "uint256",
          "name": "reputation",
          "type": "uint256"
        }
      ],
      "stateMutability": "view",
      "type": "function"
    },
    {
      "inputs": [],
      "name": "renounceOwnership",
      "outputs": [],
      "stateMutability": "nonpayable",
      "type": "function"
    },
    {
      "inputs": [
        {
          "internalType": "address",
          "name": "from",
          "type": "address"
        },
        {
          "internalType": "address",
          "name": "to",
          "type": "address"
        },
        {
          "internalType": "uint256",
          "name": "tokenId",
          "type": "uint256"
        }
      ],
      "name": "safeTransferFrom",
      "outputs": [],
      "stateMutability": "nonpayable",
      "type": "function"
    },
    {
      "inputs": [
        {
          "internalType": "address",
          "name": "from",
          "type": "address"
        },
        {
          "internalType": "address",
          "name": "to",
          "type": "address"
        },
        {
          "internalType": "uint256",
          "name": "tokenId",
          "type": "uint256"
        },
        {
          "internalType": "bytes",
          "name": "data",
          "type": "bytes"
        }
      ],
      "name": "safeTransferFrom",
      "outputs": [],
      "stateMutability": "nonpayable",
      "type": "function"
    },
    {
      "inputs": [
        {
          "internalType": "address",
          "name": "",
          "type": "address"
        },
        {
          "internalType": "bool",
          "name": "",
          "type": "bool"
        }
      ],
      "name": "setApprovalForAll",
      "outputs": [],
      "stateMutability": "nonpayable",
      "type": "function"
    },
    {
      "inputs": [
        {
          "internalType": "bytes4",
          "name": "interfaceId",
          "type": "bytes4"
        }
      ],
      "name": "supportsInterface",
      "outputs": [
        {
          "internalType": "bool",
          "name": "",
          "type": "bool"
        }
      ],
      "stateMutability": "view",
      "type": "function"
    },
    {
      "inputs": [],
      "name": "symbol",
      "outputs": [
        {
          "internalType": "string",
          "name": "",
          "type": "string"
        }
      ],
      "stateMutability": "view",
      "type": "function"
    },
    {
      "inputs": [
        {
          "internalType": "uint256",
          "name": "tokenId",
          "type": "uint256"
        }
      ],
      "name": "tokenURI",
      "outputs": [
        {
          "internalType": "string",
          "name": "",
          "type": "string"
        }
      ],
      "stateMutability": "view",
      "type": "function"
    },
    {
      "inputs": [
        {
          "internalType": "address",
          "name": "from",
          "type": "address"
        },
        {
          "internalType": "address",
          "name": "to",
          "type": "address"
        },
        {
          "internalType": "uint256",
          "name": "tokenId",
          "type": "uint256"
        }
      ],
      "name": "transferFrom",
      "outputs": [],
      "stateMutability": "nonpayable",
      "type": "function"
    },
    {
      "inputs": [
        {
          "internalType": "address",
          "name": "newOwner",
          "type": "address"
        }
      ],
      "name": "transferOwnership",
      "outputs": [],
      "stateMutability": "nonpayable",
      "type": "function"
    },
    {
      "inputs": [
        {
          "internalType": "uint256",
          "name": "tokenId",
          "type": "uint256"
        },
        {
          "internalType": "uint256",
          "name": "newReputation",
          "type": "uint256"
        }
      ],
      "name": "updateReputation",
      "outputs": [],
      "stateMutability": "nonpayable",
      "type": "function"
    },
    {
      "inputs": [
        {
          "internalType": "address",
          "name": "",
          "type": "address"
        }
      ],
      "name": "userToTokenId",
      "outputs": [
        {
          "internalType": "uint256",
          "name": "",
          "type": "uint256"
        }
      ],
      "stateMutability": "view",
      "type": "function"
    },
    {
      "inputs": [
        {
          "internalType": "uint256",
          "name": "tokenId",
          "type": "uint256"
        },
        {
          "internalType": "bool",
          "name": "verified",
          "type": "bool"
        }
      ],
      "name": "verifyProfile",
      "outputs": [],
      "stateMutability": "nonpayable",
      "type": "function"
    }
  ],
  "bytecode": "0x60806040523480156200001157600080fd5b50336040518060400160405280601881526020017f536f756c626f756e6420446174696e672050726f66696c6500000000000000008152506040518060400160405280600381526020016205344560ec1b8152508160009081620000769190620001c0565b506001620000858282620001c0565b5050506001600160a01b038116620000b757604051631e4fbdf760e01b81526000600482015260240160405180910390fd5b620000c281620000c9565b506200028c565b600680546001600160a01b038381166001600160a01b0319831681179093556040519116919082907f8be0079c531659141344cd1fd0a4f28419497f9722a3daafe3b4186f6b6457e090600090a35050565b634e487b7160e01b600052604160045260246000fd5b600181811c908216806200014657607f821691505b6020821081036200016757634e487b7160e01b600052602260045260246000fd5b50919050565b601f821115620001bb57600081815260208120601f850160051c81016020861015620001965750805b601f850160051c820191505b81811015620001b757828155600101620001a2565b5050505b505050565b81516001600160401b03811115620001dc57620001dc6200011b565b620001f481620001ed845462000131565b846200016d565b602080601f8311600181146200022c5760008415620002135750858301515b600019600386901b1c1916600185901b178555620001b7565b600085815260208120601f198616915b828110156200025d578886015182559484019460019091019084016200023c565b50858210156200027c5787850151600019600388901b60f8161c191681555b5050505050600190811b01905550565b611c67806200029c6000396000f3fe608060405234801561001057600080fd5b506004361061018e5760003560e01c80638da5cb5b116100de578063b88d4fde11610097578063c87b56dd11610071578063c87b56dd14610398578063e985e9c5146103ab578063f2fde38b146103be578063fc93d023146103d157600080fd5b8063b88d4fde1461034d578063b9209e3314610360578063c36fe3d61461037357600080fd5b80638da5cb5b146102cb57806395d89b41146102dc5780639c89a0e2146102e4578063a22cb465146102f7578063a787c80b1461030a578063af24b07b1461032d57600080fd5b8063334c3f0e1161014b5780634cd6959c116101255780634cd6959c1461027d5780636352211e1461029d57806370a08231146102b0578063715018a6146102c357600080fd5b8063334c3f0e1461023657806342842e0e146102575780634664f47a1461026a57600080fd5b806301ffc9a7146101935780630675f763146101bb57806306fdde03146101d0578063081812fc146101e5578063095ea7b31461021057806323b872dd14610223575b600080fd5b6101a66101a1366004611617565b6103d9565b60405190151581526020015b60405180910390f35b6101ce6101c9366004611634565b61042b565b005b6101d86104c5565b6040516101b291906116a6565b6101f86101f33660046116b9565b610557565b6040516001600160a01b0390911681526020016101b2565b6101ce61021e3660046116ee565b610580565b6101ce610231366004611718565b6105d4565b6102496102443660046117e0565b61065f565b6040519081526020016101b2565b6101ce610265366004611718565b6107ea565b6101ce610278366004611839565b61080a565b61029061028b366004611865565b61089e565b6040516101b29190611880565b6101f86102ab3660046116b9565b610a1f565b6102496102be366004611865565b610a2a565b6101ce610a72565b6006546001600160a01b03166101f8565b6101d8610a86565b6102496102f2366004611865565b610a95565b6101ce6103053660046118e4565b610ae9565b6101a6610318366004611865565b600a6020526000908152604090205460ff1681565b61024961033b366004611865565b60096020526000908152604090205481565b6101ce61035b36600461190e565b610b31565b6101a661036e366004611865565b610b48565b6103866103813660046116b9565b610b9f565b6040516101b29695949392919061198a565b6101d86103a63660046116b9565b610c6c565b6101a66103b93660046119cc565b610ce1565b6101ce6103cc366004611865565b610d0f565b6101ce610d4d565b60006001600160e01b031982166380ac58cd60e01b148061040a57506001600160e01b03198216635b5e139f60e01b145b8061042557506301ffc9a760e01b6001600160e01b03198316145b92915050565b610433610e4b565b6000828152600860205260409020600101546001600160a01b03166104735760405162461bcd60e51b815260040161046a906119f6565b60405180910390fd5b60008281526008602090815260409182902060050183905581518481529081018390527ea4f8488cd701f9a77136eb5c91d5e2edef3c38001ca7148525acf8a262648191015b60405180910390a15050565b6060600080546104d490611a26565b80601f016020809104026020016040519081016040528092919081815260200182805461050090611a26565b801561054d5780601f106105225761010080835404028352916020019161054d565b820191906000526020600020905b81548152906001019060200180831161053057829003601f168201915b5050505050905090565b600061056282610e78565b506000828152600460205260409020546001600160a01b0316610425565b60405162461bcd60e51b815260206004820152602360248201527f536f756c626f756e643a2043616e6e6f7420617070726f7665207472616e736660448201526265727360e81b606482015260840161046a565b6001600160a01b0382166105fe57604051633250574960e11b81526000600482015260240161046a565b600061060b838333610eb1565b9050836001600160a01b0316816001600160a01b031614610659576040516364283d7b60e01b81526001600160a01b038086166004830152602482018490528216604482015260640161046a565b50505050565b336000908152600a602052604081205460ff16156106b85760405162461bcd60e51b815260206004820152601660248201527550726f66696c6520616c72656164792065786973747360501b604482015260640161046a565b6001600760008282546106cb9190611a60565b90915550506007546106dd3382610f32565b6040805160c081018252828152336020808301918252428385019081526060840188815260006080860181905260a086018190528781526008909352949091208351815591516001830180546001600160a01b0319166001600160a01b039092169190911790555160028201559151909190600382019061075e9082611acf565b50608082015160048201805491151560ff1992831617905560a090920151600590910155336000818152600960209081526040808320869055600a90915290819020805490931660011790925590517f02ed4ee0412e67bbc9ed1687f3ad6bb7134d359d45994f3bf5302e91d81cf61f906107dc9084908790611b8f565b60405180910390a292915050565b61080583838360405180602001604052806000815250610b31565b505050565b610812610e4b565b6000828152600860205260409020600101546001600160a01b03166108495760405162461bcd60e51b815260040161046a906119f6565b600082815260086020908152604091829020600401805460ff19168415159081179091558251858152918201527fe009ea4ddcea4a6acf7fbbffe2d65b8e835e005a8b1c72e4559a914ff0eebbe891016104b9565b6108e26040518060c001604052806000815260200160006001600160a01b031681526020016000815260200160608152602001600015158152602001600081525090565b6001600160a01b0382166000908152600a602052604090205460ff1661091a5760405162461bcd60e51b815260040161046a906119f6565b6001600160a01b0380831660009081526009602090815260408083205483526008825291829020825160c0810184528154815260018201549094169184019190915260028101549183019190915260038101805460608401919061097d90611a26565b80601f01602080910402602001604051908101604052809291908181526020018280546109a990611a26565b80156109f65780601f106109cb576101008083540402835291602001916109f6565b820191906000526020600020905b8154815290600101906020018083116109d957829003601f168201915b5050509183525050600482015460ff161515602082015260059091015460409091015292915050565b600061042582610e78565b60006001600160a01b038216610a56576040516322718ad960e21b81526000600482015260240161046a565b506001600160a01b031660009081526003602052604090205490565b610a7a610e4b565b610a846000610f50565b565b6060600180546104d490611a26565b6001600160a01b0381166000908152600a602052604081205460ff16610abd57506000919050565b506001600160a01b03166000908152600960209081526040808320548352600890915290206005015490565b60405162461bcd60e51b815260206004820152601f60248201527f536f756c626f756e643a2043616e6e6f742073657420617070726f76616c7300604482015260640161046a565b610b3c8484846105d4565b61065984848484610fa2565b6001600160a01b0381166000908152600a602052604081205460ff16610b7057506000919050565b506001600160a01b03166000908152600960209081526040808320548352600890915290206004015460ff1690565b600860205260009081526040902080546001820154600283015460038401805493946001600160a01b0390931693919291610bd990611a26565b80601f0160208091040260200160405190810160405280929190818152602001828054610c0590611a26565b8015610c525780601f10610c2757610100808354040283529160200191610c52565b820191906000526020600020905b815481529060010190602001808311610c3557829003601f168201915b505050506004830154600590930154919260ff1691905086565b6060610c7782610e78565b506000610c8f60408051602081019091526000815290565b90506000815111610caf5760405180602001604052806000815250610cda565b80610cb9846110cb565b604051602001610cca929190611ba8565b6040516020818303038152906040525b9392505050565b6001600160a01b03918216600090815260056020908152604080832093909416825291909152205460ff1690565b610d17610e4b565b6001600160a01b038116610d4157604051631e4fbdf760e01b81526000600482015260240161046a565b610d4a81610f50565b50565b3360009081526009602052604081205490819003610d9a5760405162461bcd60e51b815260206004820152600a6024820152694e6f2070726f66696c6560b01b604482015260640161046a565b610da38161115e565b60008181526008602052604081208181556001810180546001600160a01b03191690556002810182905590610ddb60038301826115b3565b5060048101805460ff199081169091556000600590920182905533808352600960209081526040808520859055600a825293849020805490931690925591518381527fd66d0b9971cb093b581bbb1105187fae2d6d1a45850595fd64de0c1f1a26bdb0910160405180910390a250565b6006546001600160a01b03163314610a845760405163118cdaa760e01b815233600482015260240161046a565b6000818152600260205260408120546001600160a01b03168061042557604051637e27328960e01b81526004810184905260240161046a565b600080610ebf858585611199565b90506001600160a01b0381161580610ede57506001600160a01b038516155b610f2a5760405162461bcd60e51b815260206004820152601b60248201527f536f756c626f756e643a206e6f6e2d7472616e7366657261626c650000000000604482015260640161046a565b949350505050565b610f4c828260405180602001604052806000815250611292565b5050565b600680546001600160a01b038381166001600160a01b0319831681179093556040519116919082907f8be0079c531659141344cd1fd0a4f28419497f9722a3daafe3b4186f6b6457e090600090a35050565b6001600160a01b0383163b1561065957604051630a85bd0160e11b81526001600160a01b0384169063150b7a0290610fe4903390889087908790600401611bd7565b6020604051808303816000875af192505050801561101f575060408051601f3d908101601f1916820190925261101c91810190611c14565b60015b611088573d80801561104d576040519150601f19603f3d011682016040523d82523d6000602084013e611052565b606091505b50805160000361108057604051633250574960e11b81526001600160a01b038516600482015260240161046a565b805181602001fd5b6001600160e01b03198116630a85bd0160e11b146110c457604051633250574960e11b81526001600160a01b038516600482015260240161046a565b5050505050565b606060006110d8836112a9565b600101905060008167ffffffffffffffff8111156110f8576110f8611754565b6040519080825280601f01601f191660200182016040528015611122576020820181803683370190505b5090508181016020015b600019016f181899199a1a9b1b9c1cb0b131b232b360811b600a86061a8153600a850494508461112c57509392505050565b600061116d6000836000610eb1565b90506001600160a01b038116610f4c57604051637e27328960e01b81526004810183905260240161046a565b6000828152600260205260408120546001600160a01b03908116908316156111c6576111c6818486611381565b6001600160a01b03811615611204576111e36000856000806113e5565b6001600160a01b038116600090815260036020526040902080546000190190555b6001600160a01b03851615611233576001600160a01b0385166000908152600360205260409020805460010190555b60008481526002602052604080822080546001600160a01b0319166001600160a01b0389811691821790925591518793918516917fddf252ad1be2c89b69c2b068fc378daa952ba7f163c4a11628f55a4df523b3ef91a4949350505050565b61129c83836114eb565b6108056000848484610fa2565b60008072184f03e93ff9f4daa797ed6e38ed64bf6a1f0160401b83106112e85772184f03e93ff9f4daa797ed6e38ed64bf6a1f0160401b830492506040015b6d04ee2d6d415b85acef81000000008310611314576d04ee2d6d415b85acef8100000000830492506020015b662386f26fc10000831061133257662386f26fc10000830492506010015b6305f5e100831061134a576305f5e100830492506008015b612710831061135e57612710830492506004015b60648310611370576064830492506002015b600a83106104255760010192915050565b61138c838383611550565b610805576001600160a01b0383166113ba57604051637e27328960e01b81526004810182905260240161046a565b60405163177e802f60e01b81526001600160a01b03831660048201526024810182905260440161046a565b80806113f957506001600160a01b03821615155b156114bb57600061140984610e78565b90506001600160a01b038316158015906114355750826001600160a01b0316816001600160a01b031614155b801561144857506114468184610ce1565b155b156114715760405163a9fbf51f60e01b81526001600160a01b038416600482015260240161046a565b81156114b95783856001600160a01b0316826001600160a01b03167f8c5be1e5ebec7d5bd14f71427d1e84f3dd0314c0f7b2291e5b200ac8c7c3b92560405160405180910390a45b505b5050600090815260046020526040902080546001600160a01b0319166001600160a01b0392909216919091179055565b6001600160a01b03821661151557604051633250574960e11b81526000600482015260240161046a565b600061152383836000610eb1565b90506001600160a01b03811615610805576040516339e3563760e11b81526000600482015260240161046a565b60006001600160a01b03831615801590610f2a5750826001600160a01b0316846001600160a01b0316148061158a575061158a8484610ce1565b80610f2a5750506000908152600460205260409020546001600160a01b03908116911614919050565b5080546115bf90611a26565b6000825580601f106115cf575050565b601f016020900490600052602060002090810190610d4a91905b808211156115fd57600081556001016115e9565b5090565b6001600160e01b031981168114610d4a57600080fd5b60006020828403121561162957600080fd5b8135610cda81611601565b6000806040838503121561164757600080fd5b50508035926020909101359150565b60005b83811015611671578181015183820152602001611659565b50506000910152565b60008151808452611692816020860160208601611656565b601f01601f19169290920160200192915050565b602081526000610cda602083018461167a565b6000602082840312156116cb57600080fd5b5035919050565b80356001600160a01b03811681146116e957600080fd5b919050565b6000806040838503121561170157600080fd5b61170a836116d2565b946020939093013593505050565b60008060006060848603121561172d57600080fd5b611736846116d2565b9250611744602085016116d2565b9150604084013590509250925092565b634e487b7160e01b600052604160045260246000fd5b600067ffffffffffffffff8084111561178557611785611754565b604051601f8501601f19908116603f011681019082821181831017156117ad576117ad611754565b816040528093508581528686860111156117c657600080fd5b858560208301376000602087830101525050509392505050565b6000602082840312156117f257600080fd5b813567ffffffffffffffff81111561180957600080fd5b8201601f8101841361181a57600080fd5b610f2a8482356020840161176a565b803580151581146116e957600080fd5b6000806040838503121561184c57600080fd5b8235915061185c60208401611829565b90509250929050565b60006020828403121561187757600080fd5b610cda826116d2565b602081528151602082015260018060a01b036020830151166040820152604082015160608201526000606083015160c060808401526118c260e084018261167a565b90506080840151151560a084015260a084015160c08401528091505092915050565b600080604083850312156118f757600080fd5b611900836116d2565b915061185c60208401611829565b6000806000806080858703121561192457600080fd5b61192d856116d2565b935061193b602086016116d2565b925060408501359150606085013567ffffffffffffffff81111561195e57600080fd5b8501601f8101871361196f57600080fd5b61197e8782356020840161176a565b91505092959194509250565b86815260018060a01b038616602082015284604082015260c0606082015260006119b760c083018661167a565b93151560808301525060a00152949350505050565b600080604083850312156119df57600080fd5b6119e8836116d2565b915061185c602084016116d2565b602080825260169082015275141c9bd99a5b1948191bd95cc81b9bdd08195e1a5cdd60521b604082015260600190565b600181811c90821680611a3a57607f821691505b602082108103611a5a57634e487b7160e01b600052602260045260246000fd5b50919050565b8082018082111561042557634e487b7160e01b600052601160045260246000fd5b601f82111561080557600081815260208120601f850160051c81016020861015611aa85750805b601f850160051c820191505b81811015611ac757828155600101611ab4565b505050505050565b815167ffffffffffffffff811115611ae957611ae9611754565b611afd81611af78454611a26565b84611a81565b602080601f831160018114611b325760008415611b1a5750858301515b600019600386901b1c1916600185901b178555611ac7565b600085815260208120601f198616915b82811015611b6157888601518255948401946001909101908401611b42565b5085821015611b7f5787850151600019600388901b60f8161c191681555b5050505050600190811b01905550565b828152604060208201526000610f2a604083018461167a565b60008351611bba818460208801611656565b835190830190611bce818360208801611656565b01949350505050565b6001600160a01b0385811682528416602082015260408101839052608060608201819052600090611c0a9083018461167a565b9695505050505050565b600060208284031215611c2657600080fd5b8151610cda8161160156fea26469706673582212202db3866b51f3f38c1fc06cb657c92f94a6abfb7742529795a5582d5031d6630864736f6c63430008140033",
  "linkReferences": {},
  "deployedLinkReferences": {}
}