{
  "_format": "hh-sol-artifact-1",
  "contractName": "DatingEscrow",
  "sourceName": "contracts/DatingEscrow.sol",
  "abi": [
    {
      "inputs": [
        {
          "internalType": "address",
          "name": "_soulboundNFT",
          "type": "address"
        }
      ],
      "stateMutability": "nonpayable",
      "type": "constructor"
    },
    {
      "inputs": [
        {
          "internalType": "address",
          "name": "owner",
          "type": "address"
        }
      ],
      "name": "OwnableInvalidOwner",
      "type": "error"
    },
    {
      "inputs": [
        {
          "internalType": "address",
          "name": "account",
          "type": "address"
        }
      ],
      "name": "OwnableUnauthorizedAccount",
      "type": "error"
    },
    {
      "inputs": [],
      "name": "ReentrancyGuardReentrantCall",
      "type": "error"
    },
    {
      "anonymous": false,
      "inputs": [
        {
          "indexed": true,
          "internalType": "uint256",
          "name": "escrowId",
          "type": "uint256"
        }
      ],
      "name": "DisputeRaised",
      "type": "event"
    },
    {
      "anonymous": false,
      "inputs": [
        {
          "indexed": true,
          "internalType": "uint256",
          "name": "escrowId",
          "type": "uint256"
        }
      ],
      "name": "EscrowCompleted",
      "type": "event"
    },
    {
      "anonymous": false,
      "inputs": [
        {
          "indexed": true,
          "internalType": "uint256",
          "name": "escrowId",
          "type": "uint256"
        },
        {
          "indexed": true,
          "internalType": "uint256",
          "name": "matchId",
          "type": "uint256"
        },
        {
          "indexed": false,
          "internalType": "address",
          "name": "initiator",
          "type": "address"
        },
        {
          "indexed": false,
          "internalType": "uint256",
          "name": "amount",
          "type": "uint256"
        }
      ],
      "name": "EscrowCreated",
      "type": "event"
    },
    {
      "anonymous": false,
      "inputs": [
        {
          "indexed": true,
          "internalType": "uint256",
          "name": "escrowId",
          "type": "uint256"
        }
      ],
      "name": "EscrowRefunded",
      "type": "event"
    },
    {
      "anonymous": false,
      "inputs": [
        {
          "indexed": true,
          "internalType": "address",
          "name": "from",
          "type": "address"
        },
        {
          "indexed": true,
          "internalType": "address",
          "name": "to",
          "type": "address"
        }
      ],
      "name": "Liked",
      "type": "event"
    },
    {
      "anonymous": false,
      "inputs": [
        {
          "indexed": true,
          "internalType": "address",
          "name": "user1",
          "type": "address"
        },
        {
          "indexed": true,
          "internalType": "address",
          "name": "user2",
          "type": "address"
        },
        {
          "indexed": false,
          "internalType": "uint256",
          "name": "matchId",
          "type": "uint256"
        }
      ],
      "name": "Matched",
      "type": "event"
    },
    {
      "anonymous": false,
      "inputs": [
        {
          "indexed": true,
          "internalType": "address",
          "name": "previousOwner",
          "type": "address"
        },
        {
          "indexed": true,
          "internalType": "address",
          "name": "newOwner",
          "type": "address"
        }
      ],
      "name": "OwnershipTransferred",
      "type": "event"
    },
    {
      "inputs": [
        {
          "internalType": "uint256",
          "name": "escrowId",
          "type": "uint256"
        }
      ],
      "name": "acceptEscrow",
      "outputs": [],
      "stateMutability": "nonpayable",
      "type": "function"
    },
    {
      "inputs": [
        {
          "internalType": "uint256",
          "name": "escrowId",
          "type": "uint256"
        },
        {
          "internalType": "string",
          "name": "meetingProof",
          "type": "string"
        }
      ],
      "name": "completeEscrow",
      "outputs": [],
      "stateMutability": "nonpayable",
      "type": "function"
    },
    {
      "inputs": [
        {
          "internalType": "uint256",
          "name": "matchId",
          "type": "uint256"
        },
        {
          "internalType": "uint256",
          "name": "meetingTime",
          "type": "uint256"
        },
        {
          "internalType": "uint256",
          "name": "amount",
          "type": "uint256"
        }
      ],
      "name": "createEscrow",
      "outputs": [],
      "stateMutability": "payable",
      "type": "function"
    },
    {
      "inputs": [],
      "name": "disputePeriod",
      "outputs": [
        {
          "internalType": "uint256",
          "name": "",
          "type": "uint256"
        }
      ],
      "stateMutability": "view",
      "type": "function"
    },
    {
      "inputs": [],
      "name": "escrowCounter",
      "outputs": [
        {
          "internalType": "uint256",
          "name": "",
          "type": "uint256"
        }
      ],
      "stateMutability": "view",
      "type": "function"
    },
    {
      "inputs": [],
      "name": "escrowDuration",
      "outputs": [
        {
          "internalType": "uint256",
          "name": "",
          "type": "uint256"
        }
      ],
      "stateMutability": "view",
      "type": "function"
    },
    {
      "inputs": [
        {
          "internalType": "uint256",
          "name": "",
          "type": "uint256"
        }
      ],
      "name": "escrows",
      "outputs": [
        {
          "internalType": "uint256",
          "name": "matchId",
          "type": "uint256"
        },
        {
          "internalType": "address",
          "name": "initiator",
          "type": "address"
        },
        {
          "internalType": "address",
          "name": "counterparty",
          "type": "address"
        },
        {
          "internalType": "uint256",
          "name": "amount",
          "type": "uint256"
        },
        {
          "internalType": "enum DatingEscrow.EscrowStatus",
          "name": "status",
          "type": "uint8"
        },
        {
          "internalType": "uint256",
          "name": "createdAt",
          "type": "uint256"
        },
        {
          "internalType": "uint256",
          "name": "expiresAt",
          "type": "uint256"
        },
        {
          "internalType": "uint256",
          "name": "meetingTime",
          "type": "uint256"
        },
        {
          "internalType": "string",
          "name": "meetingProof",
          "type": "string"
        }
      ],
      "stateMutability": "view",
      "type": "function"
    },
    {
      "inputs": [
        {
          "internalType": "address",
          "name": "user1",
          "type": "address"
        },
        {
          "internalType": "address",
          "name": "user2",
          "type": "address"
        }
      ],
      "name": "getMatchStatus",
      "outputs": [
        {
          "internalType": "enum DatingEscrow.MatchStatus",
          "name": "",
          "type": "uint8"
        }
      ],
      "stateMutability": "view",
      "type": "function"
    },
    {
      "inputs": [
        {
          "internalType": "address",
          "name": "user",
          "type": "address"
        }
      ],
      "name": "getUserMatches",
      "outputs": [
        {
          "internalType": "uint256[]",
          "name": "",
          "type": "uint256[]"
        }
      ],
      "stateMutability": "view",
      "type": "function"
    },
    {
      "inputs": [
        {
          "internalType": "address",
          "name": "to",
          "type": "address"
        }
      ],
      "name": "like",
      "outputs": [],
      "stateMutability": "nonpayable",
      "type": "function"
    },
    {
      "inputs": [],
      "name": "matchCounter",
      "outputs": [
        {
          "internalType": "uint256",
          "name": "",
          "type": "uint256"
        }
      ],
      "stateMutability": "view",
      "type": "function"
    },
    {
      "inputs": [
        {
          "internalType": "address",
          "name": "",
          "type": "address"
        },
        {
          "internalType": "address",
          "name": "",
          "type": "address"
        }
      ],
      "name": "matchStatus",
      "outputs": [
        {
          "internalType": "enum DatingEscrow.MatchStatus",
          "name": "",
          "type": "uint8"
        }
      ],
      "stateMutability": "view",
      "type": "function"
    },
    {
      "inputs": [
        {
          "internalType": "uint256",
          "name": "",
          "type": "uint256"
        }
      ],
      "name": "matchToEscrow",
      "outputs": [
        {
          "internalType": "uint256",
          "name": "",
          "type": "uint256"
        }
      ],
      "stateMutability": "view",
      "type": "function"
    },
    {
      "inputs": [
        {
          "internalType": "uint256",
          "name": "",
          "type": "uint256"
        }
      ],
      "name": "matches",
      "outputs": [
        {
          "internalType": "address",
          "name": "user1",
          "type": "address"
        },
        {
          "internalType": "address",
          "name": "user2",
          "type": "address"
        },
        {
          "internalType": "uint256",
          "name": "timestamp",
          "type": "uint256"
        },
        {
          "internalType": "bool",
          "name": "isActive",
          "type": "bool"
        }
      ],
      "stateMutability": "view",
      "type": "function"
    },
    {
      "inputs": [],
      "name": "owner",
      "outputs": [
        {
          "internalType": "address",
          "name": "",
          "type": "address"
        }
      ],
      "stateMutability": "view",
      "type": "function"
    },
    {
      "inputs": [
        {
          "internalType": "uint256",
          "name": "escrowId",
          "type": "uint256"
        }
      ],
      "name": "raiseDispute",
      "outputs": [],
      "stateMutability": "nonpayable",
      "type": "function"
    },
    {
      "inputs": [
        {
          "internalType": "uint256",
          "name": "escrowId",
          "type": "uint256"
        }
      ],
      "name": "refundEscrow",
      "outputs": [],
      "stateMutability": "nonpayable",
      "type": "function"
    },
    {
      "inputs": [],
      "name": "renounceOwnership",
      "outputs": [],
      "stateMutability": "nonpayable",
      "type": "function"
    },
    {
      "inputs": [
        {
          "internalType": "uint256",
          "name": "escrowId",
          "type": "uint256"
        },
        {
          "internalType": "address",
          "name": "winner",
          "type": "address"
        },
        {
          "internalType": "uint256",
          "name": "winnerAmount",
          "type": "uint256"
        }
      ],
      "name": "resolveDispute",
      "outputs": [],
      "stateMutability": "nonpayable",
      "type": "function"
    },
    {
      "inputs": [],
      "name": "soulboundNFT",
      "outputs": [
        {
          "internalType": "contract SoulboundNFT",
          "name": "",
          "type": "address"
        }
      ],
      "stateMutability": "view",
      "type": "function"
    },
    {
      "inputs": [
        {
          "internalType": "address",
          "name": "newOwner",
          "type": "address"
        }
      ],
      "name": "transferOwnership",
      "outputs": [],
      "stateMutability": "nonpayable",
      "type": "function"
    },
    {
      "inputs": [
        {
          "internalType": "address",
          "name": "",
          "type": "address"
        },
        {
          "internalType": "uint256",
          "name": "",
          "type": "uint256"
        }
      ],
      "name": "userMatches",
      "outputs": [
        {
          "internalType": "uint256",
          "name": "",
          "type": "uint256"
        }
      ],
      "stateMutability": "view",
      "type": "function"
    }
  ],
  "bytecode": "0x608060405262093a80600a556203f480600b553480156200001f57600080fd5b5060405162002175380380620021758339810160408190526200004291620000ef565b33806200006957604051631e4fbdf760e01b81526000600482015260240160405180910390fd5b62000074816200009f565b5060018055600280546001600160a01b0319166001600160a01b039290921691909117905562000121565b600080546001600160a01b038381166001600160a01b0319831681178455604051919092169283917f8be0079c531659141344cd1fd0a4f28419497f9722a3daafe3b4186f6b6457e09190a35050565b6000602082840312156200010257600080fd5b81516001600160a01b03811681146200011a57600080fd5b9392505050565b61204480620001316000396000f3fe6080604052600436106101355760003560e01c80639c17e439116100ab578063d7a077d41161006f578063d7a077d4146103d4578063e465c46514610401578063ee28ea6214610421578063f2fde38b14610441578063f8a67dda14610461578063fd7fef9c1461048157600080fd5b80639c17e43914610309578063a5c1674e14610329578063a8d2b6d214610349578063c7ceafea14610391578063ccbd6490146103a757600080fd5b806357c2c2ba116100fd57806357c2c2ba146102775780635bf31d4d1461028d578063715018a6146102a35780637bd4f40d146102b85780638da5cb5b146102cb5780639acd61c6146102e957600080fd5b8063012f52ee1461013a57806301fd195114610178578063356f9dfd1461019c5780634768d4ef146101be57806354ad8b581461023f575b600080fd5b34801561014657600080fd5b5061015a6101553660046119a5565b6104a1565b60405161016f999897969594939291906119f8565b60405180910390f35b34801561018457600080fd5b5061018e60085481565b60405190815260200161016f565b3480156101a857600080fd5b506101bc6101b73660046119a5565b610587565b005b3480156101ca57600080fd5b506102126101d93660046119a5565b600360208190526000918252604090912080546001820154600283015492909301546001600160a01b0391821693909116919060ff1684565b604080516001600160a01b039586168152949093166020850152918301521515606082015260800161016f565b34801561024b57600080fd5b5060025461025f906001600160a01b031681565b6040516001600160a01b03909116815260200161016f565b34801561028357600080fd5b5061018e600a5481565b34801561029957600080fd5b5061018e600b5481565b3480156102af57600080fd5b506101bc610736565b6101bc6102c6366004611a85565b61074a565b3480156102d757600080fd5b506000546001600160a01b031661025f565b3480156102f557600080fd5b506101bc610304366004611b49565b610b84565b34801561031557600080fd5b506101bc610324366004611be8565b610d7a565b34801561033557600080fd5b506101bc6103443660046119a5565b61100a565b34801561035557600080fd5b50610384610364366004611c20565b600560209081526000928352604080842090915290825290205460ff1681565b60405161016f9190611c59565b34801561039d57600080fd5b5061018e60095481565b3480156103b357600080fd5b506103c76103c2366004611c73565b611177565b60405161016f9190611c97565b3480156103e057600080fd5b5061018e6103ef3660046119a5565b60076020526000908152604090205481565b34801561040d57600080fd5b506101bc61041c366004611c73565b6111e3565b34801561042d57600080fd5b506101bc61043c3660046119a5565b6113e4565b34801561044d57600080fd5b506101bc61045c366004611c73565b611592565b34801561046d57600080fd5b5061038461047c366004611c20565b6115cd565b34801561048d57600080fd5b5061018e61049c366004611cdb565b6115fd565b600460208190526000918252604090912080546001820154600283015460038401549484015460058501546006860154600787015460088801805497996001600160a01b0397881699969097169760ff9095169593949293919261050490611d07565b80601f016020809104026020016040519081016040528092919081815260200182805461053090611d07565b801561057d5780601f106105525761010080835404028352916020019161057d565b820191906000526020600020905b81548152906001019060200180831161056057829003601f168201915b5050505050905089565b61058f61162e565b60008181526004602052604081209060048083015460ff16908111156105b7576105b76119be565b146105fe5760405162461bcd60e51b8152602060048201526012602482015271457363726f77206e6f742070656e64696e6760701b60448201526064015b60405180910390fd5b60018101546001600160a01b0316331461065a5760405162461bcd60e51b815260206004820152601960248201527f4f6e6c7920696e69746961746f722063616e20726566756e640000000000000060448201526064016105f5565b806007015442116106ad5760405162461bcd60e51b815260206004820152601760248201527f4d656574696e672074696d65206e6f742070617373656400000000000000000060448201526064016105f5565b6004818101805460ff19169091179055600181015460038201546040516001600160a01b03909216916108fc82150291906000818181858888f193505050501580156106fd573d6000803e3d6000fd5b5060405182907f2babb5cd458b6d41108d6d793a75e29ca524e7caa20e2da6c994462010920a7290600090a25061073360018055565b50565b61073e611658565b6107486000611685565b565b61075261162e565b60025460405163a787c80b60e01b81523360048201819052916001600160a01b03169063a787c80b90602401602060405180830381865afa15801561079b573d6000803e3d6000fd5b505050506040513d601f19601f820116820180604052508101906107bf9190611d56565b6107db5760405162461bcd60e51b81526004016105f590611d71565b6000848152600360208190526040909120015460ff166108305760405162461bcd60e51b815260206004820152601060248201526f4d61746368206e6f742061637469766560801b60448201526064016105f5565b6000848152600360205260409020546001600160a01b031633148061086e57506000848152600360205260409020600101546001600160a01b031633145b6108ae5760405162461bcd60e51b815260206004820152601160248201527009cdee840e0c2e4e840decc40dac2e8c6d607b1b60448201526064016105f5565b8134146108f55760405162461bcd60e51b8152602060048201526015602482015274125b98dbdc9c9958dd08185b5bdd5b9d081cd95b9d605a1b60448201526064016105f5565b600082116109455760405162461bcd60e51b815260206004820152601d60248201527f416d6f756e74206d7573742062652067726561746572207468616e203000000060448201526064016105f5565b4283116109945760405162461bcd60e51b815260206004820152601e60248201527f4d656574696e672074696d65206d75737420626520696e20667574757265000060448201526064016105f5565b6000848152600360205260408120546001600160a01b031633146109cf576000858152600360205260409020546001600160a01b03166109eb565b6000858152600360205260409020600101546001600160a01b03165b6009805491925060006109fd83611dbe565b909155505060408051610120810182528681523360208201526001600160a01b03831691810191909152606081018490526080810160008152602001428152602001600a5442610a4d9190611dd7565b8152602080820187905260408051808301825260008082529382015260095483526004808352928190208451815591840151600180840180546001600160a01b039384166001600160a01b03199182161790915592860151600285018054919093169316929092179055606084015160038301556080840151828401805493949193909260ff19909116918490811115610ae957610ae96119be565b021790555060a0820151600582015560c0820151600682015560e082015160078201556101008201516008820190610b219082611e38565b505060095460008781526007602090815260409182902083905581513381529081018790528893507f3c2dc6abde8e114ca054a4bfc1dc2e892e8c31beedc6f95a37707b4f88e934d0910160405180910390a35050610b7f60018055565b505050565b610b8c61162e565b6000828152600460205260409020600160048083015460ff1690811115610bb557610bb56119be565b14610bf65760405162461bcd60e51b8152602060048201526011602482015270457363726f77206e6f742061637469766560781b60448201526064016105f5565b60018101546001600160a01b0316331480610c1d575060028101546001600160a01b031633145b610c5a5760405162461bcd60e51b815260206004820152600e60248201526d139bdd08185d5d1a1bdc9a5e995960921b60448201526064016105f5565b8060070154421015610cae5760405162461bcd60e51b815260206004820152601b60248201527f4d656574696e67206861736e2774206f6363757272656420796574000000000060448201526064016105f5565b60048101805460ff1916600217905560088101610ccb8382611e38565b50600281015460038201546040516001600160a01b039092169181156108fc0291906000818181858888f19350505050158015610d0c573d6000803e3d6000fd5b50600180820154610d28916001600160a01b03909116906116d5565b6002810154610d41906001600160a01b031660016116d5565b60405183907f9285bd636dda01bef18996aa38303bb742f6c67a6941646dddb17630cb492c2e90600090a250610d7660018055565b5050565b610d82611658565b610d8a61162e565b6000838152600460205260409020600360048083015460ff1690811115610db357610db36119be565b14610df65760405162461bcd60e51b8152602060048201526013602482015272115cd8dc9bddc81b9bdd08191a5cdc1d5d1959606a1b60448201526064016105f5565b60018101546001600160a01b0384811691161480610e23575060028101546001600160a01b038481169116145b610e605760405162461bcd60e51b815260206004820152600e60248201526d24b73b30b634b2103bb4b73732b960911b60448201526064016105f5565b8060030154821115610ea65760405162461bcd60e51b815260206004820152600f60248201526e082dadeeadce840e8dede40d0d2ced608b1b60448201526064016105f5565b6000828260030154610eb89190611ef8565b90508215610ef8576040516001600160a01b0385169084156108fc029085906000818181858888f19350505050158015610ef6573d6000803e3d6000fd5b505b8015610f765760018201546000906001600160a01b03868116911614610f2b5760018301546001600160a01b0316610f3a565b60028301546001600160a01b03165b6040519091506001600160a01b0382169083156108fc029084906000818181858888f19350505050158015610f73573d6000803e3d6000fd5b50505b60048201805460ff19166002179055610f908460016116d5565b6001820154610fd4906001600160a01b03868116911614610fbe5760018301546001600160a01b0316610fcd565b60028301546001600160a01b03165b60006116d5565b60405185907f9285bd636dda01bef18996aa38303bb742f6c67a6941646dddb17630cb492c2e90600090a25050610b7f60018055565b61101261162e565b6000818152600460205260409020600160048083015460ff169081111561103b5761103b6119be565b1461107c5760405162461bcd60e51b8152602060048201526011602482015270457363726f77206e6f742061637469766560781b60448201526064016105f5565b60018101546001600160a01b03163314806110a3575060028101546001600160a01b031633145b6110e05760405162461bcd60e51b815260206004820152600e60248201526d139bdd08185d5d1a1bdc9a5e995960921b60448201526064016105f5565b806007015442116111335760405162461bcd60e51b815260206004820152601b60248201527f4d656574696e67206861736e2774206f6363757272656420796574000000000060448201526064016105f5565b60048101805460ff1916600317905560405182907f04901f83201c8724eadf084436db8aa391820bae6d11f9f78a17edb6f2eef3cf90600090a25061073360018055565b6001600160a01b0381166000908152600660209081526040918290208054835181840281018401909452808452606093928301828280156111d757602002820191906000526020600020905b8154815260200190600101908083116111c3575b50505050509050919050565b60025460405163a787c80b60e01b81523360048201819052916001600160a01b03169063a787c80b90602401602060405180830381865afa15801561122c573d6000803e3d6000fd5b505050506040513d601f19601f820116820180604052508101906112509190611d56565b61126c5760405162461bcd60e51b81526004016105f590611d71565b60025460405163a787c80b60e01b81526001600160a01b0380851660048301528492169063a787c80b90602401602060405180830381865afa1580156112b6573d6000803e3d6000fd5b505050506040513d601f19601f820116820180604052508101906112da9190611d56565b6112f65760405162461bcd60e51b81526004016105f590611d71565b6001600160a01b03831633036113455760405162461bcd60e51b815260206004820152601460248201527321b0b73737ba103634b5b2903cb7bab939b2b63360611b60448201526064016105f5565b3360008181526005602081815260408084206001600160a01b03891685528252808420805460ff191660019081179091559282528084209484529390529190205460ff16600381111561139a5761139a6119be565b036113a9576113a93384611863565b6040516001600160a01b0384169033907f51f8aa0e952472289f1c1c1a4081a55320ec74ba88d405c3f5d496273047809190600090a3505050565b6113ec61162e565b60025460405163a787c80b60e01b81523360048201819052916001600160a01b03169063a787c80b90602401602060405180830381865afa158015611435573d6000803e3d6000fd5b505050506040513d601f19601f820116820180604052508101906114599190611d56565b6114755760405162461bcd60e51b81526004016105f590611d71565b60008281526004602052604081209060048083015460ff169081111561149d5761149d6119be565b146114df5760405162461bcd60e51b8152602060048201526012602482015271457363726f77206e6f742070656e64696e6760701b60448201526064016105f5565b60028101546001600160a01b031633146115325760405162461bcd60e51b81526020600482015260146024820152734e6f742074686520636f756e746572706172747960601b60448201526064016105f5565b8060070154421061157b5760405162461bcd60e51b81526020600482015260136024820152721359595d1a5b99c81d1a5b59481c185cdcd959606a1b60448201526064016105f5565b600401805460ff1916600190811790915580555050565b61159a611658565b6001600160a01b0381166115c457604051631e4fbdf760e01b8152600060048201526024016105f5565b61073381611685565b6001600160a01b0380831660009081526005602090815260408083209385168352929052205460ff165b92915050565b6006602052816000526040600020818154811061161957600080fd5b90600052602060002001600091509150505481565b60026001540361165157604051633ee5aeb560e01b815260040160405180910390fd5b6002600155565b6000546001600160a01b031633146107485760405163118cdaa760e01b81523360048201526024016105f5565b600080546001600160a01b038381166001600160a01b0319831681178455604051919092169283917f8be0079c531659141344cd1fd0a4f28419497f9722a3daafe3b4186f6b6457e09190a35050565b60025460405163af24b07b60e01b81526001600160a01b038481166004830152600092169063af24b07b90602401602060405180830381865afa158015611720573d6000803e3d6000fd5b505050506040513d601f19601f820116820180604052508101906117449190611f0b565b600254604051631335a56760e21b81526001600160a01b03868116600483015292935060009290911690634cd6959c90602401600060405180830381865afa158015611794573d6000803e3d6000fd5b505050506040513d6000823e601f3d908101601f191682016040526117bc9190810190611f24565b60a08101519091506000846117ea57600082116117da5760006117f5565b6117e5600183611ef8565b6117f5565b6117f5826001611dd7565b600254604051630675f76360e01b815260048101879052602481018390529192506001600160a01b031690630675f76390604401600060405180830381600087803b15801561184357600080fd5b505af1158015611857573d6000803e3d6000fd5b50505050505050505050565b6008805490600061187383611dbe565b9091555050604080516080810182526001600160a01b0384811680835284821660208085018281524286880190815260016060880181815260088054600090815260038088528c82209b518c54908c166001600160a01b0319918216178d5596518c8601805491909c1697169690961790995592516002808b0191909155905198909301805498151560ff19998a161790558587526005808552898820868952855289882080548a168517905584528887208688528452888720805490981690921790965560068252868520865481548084018355918752838720909101558285528685208654815492830182559086529482902001939093559254935193845291927fa43e18352491949f87be02f6d0a3bc9be85e85667286696ab07fda602481a945910160405180910390a35050565b6000602082840312156119b757600080fd5b5035919050565b634e487b7160e01b600052602160045260246000fd5b60005b838110156119ef5781810151838201526020016119d7565b50506000910152565b8981526001600160a01b0389811660208301528816604082015260608101879052600061012060058810611a2e57611a2e6119be565b8760808401528660a08401528560c08401528460e084015280610100840152835180828501526101409150611a6981838601602088016119d4565b601f01601f1916929092019091019a9950505050505050505050565b600080600060608486031215611a9a57600080fd5b505081359360208301359350604090920135919050565b634e487b7160e01b600052604160045260246000fd5b60405160c0810167ffffffffffffffff81118282101715611aea57611aea611ab1565b60405290565b604051601f8201601f1916810167ffffffffffffffff81118282101715611b1957611b19611ab1565b604052919050565b600067ffffffffffffffff821115611b3b57611b3b611ab1565b50601f01601f191660200190565b60008060408385031215611b5c57600080fd5b82359150602083013567ffffffffffffffff811115611b7a57600080fd5b8301601f81018513611b8b57600080fd5b8035611b9e611b9982611b21565b611af0565b818152866020838501011115611bb357600080fd5b816020840160208301376000602083830101528093505050509250929050565b6001600160a01b038116811461073357600080fd5b600080600060608486031215611bfd57600080fd5b833592506020840135611c0f81611bd3565b929592945050506040919091013590565b60008060408385031215611c3357600080fd5b8235611c3e81611bd3565b91506020830135611c4e81611bd3565b809150509250929050565b6020810160048310611c6d57611c6d6119be565b91905290565b600060208284031215611c8557600080fd5b8135611c9081611bd3565b9392505050565b6020808252825182820181905260009190848201906040850190845b81811015611ccf57835183529284019291840191600101611cb3565b50909695505050505050565b60008060408385031215611cee57600080fd5b8235611cf981611bd3565b946020939093013593505050565b600181811c90821680611d1b57607f821691505b602082108103611d3b57634e487b7160e01b600052602260045260246000fd5b50919050565b80518015158114611d5157600080fd5b919050565b600060208284031215611d6857600080fd5b611c9082611d41565b60208082526018908201527f55736572206d757374206861766520612070726f66696c650000000000000000604082015260600190565b634e487b7160e01b600052601160045260246000fd5b600060018201611dd057611dd0611da8565b5060010190565b808201808211156115f7576115f7611da8565b601f821115610b7f57600081815260208120601f850160051c81016020861015611e115750805b601f850160051c820191505b81811015611e3057828155600101611e1d565b505050505050565b815167ffffffffffffffff811115611e5257611e52611ab1565b611e6681611e608454611d07565b84611dea565b602080601f831160018114611e9b5760008415611e835750858301515b600019600386901b1c1916600185901b178555611e30565b600085815260208120601f198616915b82811015611eca57888601518255948401946001909101908401611eab565b5085821015611ee85787850151600019600388901b60f8161c191681555b5050505050600190811b01905550565b818103818111156115f7576115f7611da8565b600060208284031215611f1d57600080fd5b5051919050565b60006020808385031215611f3757600080fd5b825167ffffffffffffffff80821115611f4f57600080fd5b9084019060c08287031215611f6357600080fd5b611f6b611ac7565b8251815283830151611f7c81611bd3565b8185015260408381015190820152606083015182811115611f9c57600080fd5b83019150601f82018713611faf57600080fd5b8151611fbd611b9982611b21565b8181528886838601011115611fd157600080fd5b611fe0828783018887016119d4565b606083015250611ff260808401611d41565b608082015260a083015160a0820152809450505050509291505056fea2646970667358221220a7e504a6902a95c030d6a3a6abf62695e15678621ea6fd5e1a3d954e7bb6e72964736f6c63430008140033",
  "linkReferences": {},
  "deployedLinkReferences": {}
}